:100000000C9424010C9443010C94C1010C945C02E7
:100010000C9441010C943D020C9441010C9441015B
:100020000C9441010C9441010C9441010C94410148
:100030000C9441010C9441010C9494020C944101E4
:100040000C9441010C9441010C94E4020C94410184
:100050000C9441010C94C1020C9441010C94410197
:100060000C9441010C944101000000000000005F6D
:1000700000000007000700147F147F14242A7F2A41
:10008000122313086462364955225000050300000C
:10009000001C2241000041221C0014083E081408E4
:1000A000083E0808005030000008080808080060F2
:1000B00060000020100804023E5149453E00427F86
:1000C000400042615149462141454B311814127F8D
:1000D0001027454545393C4A494930017109050316
:1000E0003649494936064949291E0036360000007E
:1000F0005636000008142241001414141414004150
:100100002214080201510906324979413E7E11113B
:10011000117E7F494949363E414141227F4141227A
:100120001C7F494949417F090909013E4149497AF2
:100130007F0808087F00417F41002040413F017F48
:10014000081422417F404040407F020C027F7F0420
:1001500008107F3E4141413E7F090909063E415159
:10016000215E7F09192946464949493101017F012C
:10017000013F4040403F1F2040201F3F4038403F4C
:100180006314081463070870080761514945430068
:100190007F41410002040810200041417F00040219
:1001A0000102044040404040000102040020545439
:1001B00054787F48444438384444442038444448C0
:1001C0007F3854545418087E0901020C5252523E92
:1001D0007F0804047800447D40002040443D007FB7
:1001E0001028440000417F40007C041804787C08FB
:1001F00004047838444444387C1414140808141453
:10020000187C7C080404084854545420043F44409B
:10021000203C4040207C1C2040201C3C4030403C86
:1002200044281028440C5050503C4464544C440022
:100230000836410000007F00000041360800100829
:10024000081008000000000011241FBECFEFD8E006
:10025000DEBFCDBF11E0A0E0B1E0ECEAFDE202C0FC
:1002600005900D92A239B107D9F723E0A2E9B1E0D8
:1002700001C01D92A33DB207E1F70E9492030C94C6
:10028000D4160C9400001F920F9200905F000F9202
:1002900011248F939F93CF93DF93CDB7DEB78091D7
:1002A000020190910301181619060CF060C08091AC
:1002B000020190910301019789F4809100019091CE
:1002C00001014E970CF053C0809100019091010103
:1002D0000196909301018093000149C08091020131
:1002E00090910301029781F48091B2019091B30142
:1002F0000A97ECF58091B2019091B3010196909329
:10030000B3018093B20133C0809102019091030147
:10031000039781F4809104019091050108973CF5C1
:1003200080910401909105010196909305018093BD
:1003300004011DC08091020190910301049721F4F2
:1003400081E08093090113C0809102019091030123
:10035000059721F481E08093B40109C080910201E6
:1003600090910301069719F481E080930A01DF91CF
:10037000CF919F918F910F9000925F000F901F90EF
:1003800018951F920F9200905F000F9211248F9387
:100390009F93CF93DF93CDB7DEB780910201909109
:1003A0000301181619060CF05EC0809102019091AD
:1003B0000301019789F48091000190910101069752
:1003C0000CF451C08091000190910101019790932C
:1003D00001018093000147C08091020190910301C7
:1003E000029789F48091B2019091B3011816190611
:1003F000D4F58091B2019091B30101979093B3012C
:100400008093B20130C08091020190910301039763
:1004100081F48091040190910501029724F180916B
:1004200004019091050101979093050180930401C7
:100430001AC08091020190910301049719F410925F
:10044000090111C08091020190910301059719F4EF
:100450001092B40108C080910201909103010697A7
:1004600011F410920A01DF91CF919F918F910F901B
:1004700000925F000F901F9018951F920F920090AE
:100480005F000F9211248F939F93CF93DF93CDB78B
:10049000DEB78091A8019091A90101969093A901DE
:1004A0008093A801DF91CF919F918F910F9000923F
:1004B0005F000F901F9018951F920F9200905F00A1
:1004C0000F9211248F939F93CF93DF93CDB7DEB715
:1004D0009091070181E0992309F080E08093070162
:1004E000809107018823B1F080910201909103016E
:1004F000069739F48FEF9FEF9093030180930201E9
:1005000009C080910201909103010196909303012B
:1005100080930201DF91CF919F918F910F90009274
:100520005F000F901F9018951F920F9200905F0030
:100530000F9211248F939F93AF93BF93CF93DF9329
:10054000CDB7DEB78091920190919301A091940173
:10055000B09195010196A11DB11D809392019093D8
:100560009301A0939401B0939501DF91CF91BF9136
:10057000AF919F918F910F9000925F000F901F900D
:1005800018951F920F9200905F000F9211248F9385
:100590009F93EF93FF93CF93DF93CDB7DEB788E7B9
:1005A00090E0FC018081918190939D0180939C015A
:1005B000DF91CF91FF91EF919F918F910F900092DA
:1005C0005F000F901F9018951F920F9200905F0090
:1005D0000F9211242F933F934F935F936F937F93C9
:1005E0008F939F93AF93BF93EF93FF93CF93DF933B
:1005F000CDB7DEB78091AC019091AD0126EC30E033
:10060000F9012081855F9E4FFC0120838091AC0120
:100610009091AD0101969093AD018093AC018091D2
:10062000AC019091AD01099709F045C01092AD0160
:100630001092AC0180910B018B33C1F580911301B5
:100640008A33A1F580910F01883781F580910C01E3
:10065000803360F180910C018A3340F580910D0167
:10066000803320F180910D018A3300F580910E01D5
:100670008033E0F080910E018A33C0F48091100144
:100680008033A0F0809110018A3380F480911101B1
:10069000803360F0809111018A3340F4809112011F
:1006A000803320F0809112018A3318F00E94850D6A
:1006B00002C00E94BD0DDF91CF91FF91EF91BF91DC
:1006C000AF919F918F917F916F915F914F913F91EA
:1006D0002F910F9000925F000F901F901895CF936D
:1006E000DF9300D0CDB7DEB79A83898385EC90E0A5
:1006F00029813A81232F3327FC01208384EC90E069
:100700002981FC01208381EC90E028E9FC01208311
:1007100082EC90E026E0FC0120830F900F90DF91A7
:10072000CF910895EF92FF920F931F93CF93DF9392
:10073000CDB7DEB7A8970FB6F894DEBF0FBECDBF1A
:1007400019821A821B821C821D821E821F821886B9
:1007500019861A861B861C868AE290E023EAFC0131
:1007600020838BE290E02CE0FC01208384E290E087
:1007700026E1FC01208387E290E02CEFFC0120833E
:1007800088E290E0FC01108285E290E020E4FC0128
:10079000208389E690E02AE0FC0120838DE390E04D
:1007A00023E0FC01208388E690E025E0FC01208323
:1007B0008DE690E020E1FC0120838BE690E020E4D0
:1007C000FC01208384E490E022E0FC01208385E4A6
:1007D00090E023E0FC01208387E490E029EFFC0116
:1007E00020838EE690E022E0FC0120838CE790E0FD
:1007F00020E4FC0120838AE790E02FEEFC012083B7
:100800008BE790E0FC0110828EE790E02CE3FC0186
:10081000208386E890E02FE33CE9FC0131832083CC
:1008200080E890E022EAFC01208381E890E02AE160
:10083000FC01208388E890E020ED37E0FC01318363
:1008400020838AE890E020EA3FE0FC0131832083A6
:1008500087E690E00E946F0378940E94820E0E94C7
:100860001D0A209192013091930140919401509181
:10087000950189819A81AB81BC8179018A01E81A4D
:10088000F90A0A0B1B0BD801C7018C3D9540A10545
:10089000B10574F08091920190919301A09194011F
:1008A000B091950189839A83AB83BC830E94A90B85
:1008B00020919201309193014091940150919501C2
:1008C0008D819E81AF81B88579018A01E81AF90A84
:1008D0000A0B1B0BD801C70186399105A105B1058B
:1008E00074F08091920190919301A0919401B09144
:1008F00095018D839E83AF83B8870E94C20B809140
:10090000A6019091A701CC972CF180919E01909126
:100910009F01A091A001B091A10120E030E044E24C
:1009200052E4BC01CD010E94561318169CF0809130
:100930009E0190919F01A091A001B091A10120E0A2
:1009400030E04CE052E4BC01CD010E94F711882355
:100950000CF081C080910901882309F47CC08BE2EE
:1009600090E02BE230E0F90120812068FC01208337
:1009700080E090E0A0E8BFE38D879E87AF87B88BCB
:1009800020E030E04AE755E46D857E858F859889C3
:100990000E945B13DC01CB01898B9A8BAB8BBC8BE8
:1009A00020E030E040E85FE369897A898B899C899F
:1009B0000E94F71188232CF481E090E09E8B8D8BB0
:1009C0003FC020E03FEF4FE757E469897A898B8980
:1009D0009C890E94561318164CF520E030E040E246
:1009E00051E46D857E858F8598890E945B13DC01BB
:1009F000CB01BC01CD010E947512DC01CB019E8BA5
:100A00008D8B0FC080E991E0988F8F8B8F89988DA7
:100A10000197F1F7988F8F8B8D899E8901979E8B17
:100A20008D8B8D899E89892B69F790C069897A8918
:100A30008B899C890E947512DC01CB019E8B8D8B6A
:100A40008D899E899A8F898F898D9A8D0197F1F76B
:100A50009A8F898F7BC08BE290E02BE230E0F90126
:100A600020812F77FC01208380E090E0A0E8BFE3A5
:100A70008B8F9C8FAD8FBE8F20E030E04AE755E42E
:100A80006B8D7C8D8D8D9E8D0E945B13DC01CB0167
:100A90008F8F98A3A9A3BAA320E030E040E85FE3DA
:100AA0006F8D78A189A19AA10E94F71188232CF457
:100AB00081E090E09CA38BA33FC020E03FEF4FE795
:100AC00057E46F8D78A189A19AA10E945613181638
:100AD0004CF520E030E040E251E46B8D7C8D8D8D53
:100AE0009E8D0E945B13DC01CB01BC01CD010E94F5
:100AF0007512DC01CB019CA38BA30FC080E991E0B0
:100B00009EA38DA38DA19EA10197F1F79EA38DA316
:100B10008BA19CA101979CA38BA38BA19CA1892B4A
:100B200069F714C06F8D78A189A19AA10E947512EE
:100B3000DC01CB019CA38BA38BA19CA198A78FA3C5
:100B40008FA198A50197F1F798A78FA32091920103
:100B500030919301409194015091950189859A8536
:100B6000AB85BC8579018A01E81AF90A0A0B1B0BCF
:100B7000D801C701883C9105A105B10574F08091A9
:100B8000920190919301A0919401B0919501898770
:100B90009A87AB87BC870E94FC058091B4018823AB
:100BA00051F08BE290E02BE230E0F90120812064EB
:100BB000FC01208309C08BE290E02BE230E0F901D8
:100BC00020812F7BFC01208380910A01882351F032
:100BD0008BE290E02BE230E0F90120812062FC0101
:100BE000208309C08BE290E02BE230E0F901208104
:100BF0002F7DFC01208333CECF93DF93CDB7DEB7BB
:100C00002C970FB6F894DEBF0FBECDBF80910901BF
:100C1000813049F48FE48093B6038EE48093B70368
:100C20001092B8030BC08FE48093B60386E48093E0
:100C3000B70386E48093B8031092B9038091B4019E
:100C4000813049F48FE48093AF038EE48093B00346
:100C50001092B1030BC08FE48093AF0386E48093BE
:100C6000B00386E48093B1031092B20380910A012D
:100C7000813049F48FE48093BA038EE48093BB0300
:100C80001092BC030BC08FE48093BA0386E4809378
:100C9000BB0386E48093BC031092BD0380910401E2
:100CA00090910501292F2F938F938CE191E0892F4B
:100CB0008F938CE191E08F9385EC93E0892F8F9354
:100CC00085EC93E08F930E94FC130F900F900F9090
:100CD0000F900F900F908091B2019091B301880F07
:100CE000991F9C01220F331F220F331F820F931F66
:100CF000292F2F938F938CE191E0892F8F938CE193
:100D000091E08F938FEC93E0892F8F938FEC93E09A
:100D10008F930E94FC130F900F900F900F900F90E5
:100D20000F908091A4019091A501292F2F938F936B
:100D30008CE191E0892F8F938CE191E08F9383EB8D
:100D400093E0892F8F9383EB93E08F930E94FC13A2
:100D50000F900F900F900F900F900F908091A20125
:100D60009091A301292F2F938F938CE191E0892FEC
:100D70008F938CE191E08F938BEC93E0892F8F938D
:100D80008BEC93E08F930E94FC130F900F900F90C9
:100D90000F900F900F908091A6019091A701292F9D
:100DA0002F938F938CE191E0892F8F938CE191E0C9
:100DB0008F9387EC93E0892F8F9387EC93E08F9349
:100DC0000E94FC130F900F900F900F900F900F90B8
:100DD0008091AA019091AB01292F2F938F938CE1E1
:100DE00091E0892F8F938CE191E08F938EEB93E0CC
:100DF000892F8F938EEB93E08F930E94FC130F90BB
:100E00000F900F900F900F900F9080910001909194
:100E10000101292F2F938F938CE191E0892F8F93DC
:100E20008CE191E08F9382EC93E0892F8F9382EC99
:100E300093E08F930E94FC130F900F900F900F90F0
:100E40000F900F908091020190910301019609F09B
:100E50008BC00E94011061E08AE00E94571161E09E
:100E60008FE191E00E94351168E284E10E94571100
:100E700061E08AE291E00E94351184E190E09A837A
:100E800089830EC0998189818C5E41E0692F0E941F
:100E900024100E94691189819A8101969A8389831D
:100EA00089819A81829774F382E290E09C838B839C
:100EB0000DC08B8141E0682F86E30E9424100E94C0
:100EC00069118B819C8101979C838B838B819C8191
:100ED00041977CF786E390E09E838D830CC08D81E3
:100EE00041E060E10E9424100E9469118D819E8181
:100EF00001979E838D838D819E81459784F780E144
:100F000090E098878F830DC08F8141E0682F84E146
:100F10000E9424100E9469118F81988501969887FC
:100F20008F838F81988582977CF384E190E09A8704
:100F3000898782E290E09C878B8712C09B85898598
:100F400041E0692F0E9424100E94691189859A85C9
:100F500001969A8789878B859C8501979C878B87CB
:100F600089859A85829754F38091020190910301BB
:100F7000892B09F067C00E94011061E081E00E94A6
:100F8000571161E081E391E00E9435116AE081E050
:100F90000E94571161E08EEB93E00E9435116AE0E8
:100FA0008CE20E94571161E08FE391E00E943511BD
:100FB00064E181E00E94571161E087EC93E00E94B8
:100FC000351164E18CE20E94571161E083E491E005
:100FD0000E9435116EE181E00E94571161E08BECB7
:100FE00093E00E9435116EE18EE00E94571161E09E
:100FF00089E491E00E9435116EE182E10E9457116F
:1010000061E083EB93E00E9435116EE18CE20E9477
:10101000571161E08BE491E00E94351168E281E0B4
:101020000E94571161E084E191E00E94351168E26D
:101030008CE20E94571161E08DE491E00E9435112D
:101040000E9469118091020190910301019709F0BA
:101050004CC00E94011061E081E00E94571161E0E4
:1010600082E591E00E9435116CE081E00E94571109
:1010700061E082EC93E00E9435116CE089E10E940E
:10108000571161E08DE591E00E9435116CE083E23B
:101090000E94571161E08FE591E00E94351166E1F1
:1010A00081E00E94571161E08FEC93E00E943511BE
:1010B00066E183E20E94571161E088E691E00E94B8
:1010C000351160E281E00E94571161E085EC93E008
:1010D0000E94351160E283E20E94571161E08CE6C4
:1010E00091E00E9435110E94691180910201909156
:1010F0000301029709F04CC00E94011061E081E0F9
:101100000E94571161E082E591E00E9435116CE088
:1011100081E00E94571161E082EC93E00E9435115A
:101120006CE083E20E94571161E08FE591E00E943C
:10113000351166E181E00E94571161E08FEC93E088
:101140000E94351166E189E10E94571161E08DE549
:1011500091E00E94351166E183E20E94571161E03F
:1011600088E691E00E94351160E281E00E9457110B
:1011700061E085EC93E00E94351160E283E20E9419
:10118000571161E08CE691E00E9435110E946911CF
:101190008091020190910301039709F04CC00E94D5
:1011A000011061E081E00E94571161E082E591E069
:1011B0000E9435116CE081E00E94571161E082ECE1
:1011C00093E00E9435116CE083E20E94571161E0C8
:1011D0008FE591E00E94351166E181E00E94571190
:1011E00061E08FEC93E00E94351166E183E20E949A
:1011F000571161E088E691E00E94351160E281E0DC
:101200000E94571161E085EC93E00E94351160E285
:1012100089E10E94571161E08DE591E00E9435114E
:1012200060E283E20E94571161E08CE691E00E9447
:1012300035110E9469118091020190910301049778
:1012400009F04CC00E94011061E081E00E9457113A
:1012500061E080E791E00E9435116CE081E00E943E
:10126000571161E088E791E00E9435116CE082E35C
:101270000E94571161E08DE591E00E9435116CE00C
:101280008CE30E94571161E086EB93E00E943511D8
:1012900066E181E00E94571161E08EE791E00E94D3
:1012A000351166E18CE30E94571161E08FEA93E00B
:1012B0000E94351160E281E00E94571161E085E8EB
:1012C00091E00E94351160E28CE30E94571161E0C9
:1012D0008AEB93E00E9435110E946911809102010E
:1012E00090910301059709F04CC00E94011061E044
:1012F00081E00E94571161E080E791E00E94351182
:101300006CE081E00E94571161E088E791E00E9463
:1013100035116CE08CE30E94571161E086EB93E09D
:101320000E94351166E181E00E94571161E08EE76D
:1013300091E00E94351166E182E30E94571161E05D
:101340008DE591E00E94351166E18CE30E94571112
:1013500061E08FEA93E00E94351160E281E00E9433
:10136000571161E085E891E00E94351160E28CE35D
:101370000E94571161E08AEB93E00E9435110E94B0
:1013800069118091020190910301069709F04CC008
:101390000E94011061E081E00E94571161E080E746
:1013A00091E00E9435116CE081E00E94571161E0EC
:1013B00088E791E00E9435116CE08CE30E945711A0
:1013C00061E086EB93E00E94351166E181E00E94C6
:1013D000571161E08EE791E00E94351166E18CE3E0
:1013E0000E94571161E08FEA93E00E94351160E29C
:1013F00081E00E94571161E085E891E00E9435117B
:1014000060E282E30E94571161E08DE591E00E9465
:10141000351160E28CE30E94571161E08AEB93E0A2
:101420000E9435110E9469112C960FB6F894DEBF08
:101430000FBECDBFDF91CF910895CF93DF93CDB78E
:10144000DEB764970FB6F894DEBF0FBECDBF209114
:101450000001309101018CE390E0B9010E94D413A6
:10146000CB01AC0188EE93E0489F9001499F300D7D
:10147000589F300D1124C90199230CF40F969595AE
:10148000879595958795959587959595879590934B
:101490009B0180939A012091AE013091AF01809120
:1014A0000401909105012817390779F490910601FC
:1014B00081E0992309F080E0809306011092AF014A
:1014C0001092AE0181E08093080120919201309149
:1014D00093014091940150919501809196019091D2
:1014E0009701A0919801B0919901281B390B4A0BE3
:1014F0005B0B80919A0190919B01092E000CAA0B25
:10150000BB0B281739074A075B070CF408C1809109
:10151000920190919301A0919401B09195018093D3
:10152000960190939701A0939801B093990188E850
:1015300090E0FC0180819181803A9F4019F41092E3
:1015400006019CC088E890E0FC0180819181803D8B
:10155000974009F093C081E08093060180910801D3
:10156000882309F48BC080910901882309F484C081
:101570008BE290E02BE230E0F90120812068FC0151
:10158000208380E090E0A8ECB1E489839A83AB8368
:10159000BC8320E030E04AE755E469817A818B81A1
:1015A0009C810E945B13DC01CB018D839E83AF8302
:1015B000B88720E030E040E85FE36D817E818F8175
:1015C00098850E94F71188232CF481E090E09A8797
:1015D00089873FC020E03FEF4FE757E46D817E8170
:1015E0008F8198850E94561318164CF520E030E044
:1015F00040E251E469817A818B819C810E945B1376
:10160000DC01CB01BC01CD010E947512DC01CB01D4
:101610009A8789870FC080E991E09C878B878B85AB
:101620009C850197F1F79C878B8789859A8501971F
:101630009A87898789859A85892B69F714C06D8176
:101640007E818F8198850E947512DC01CB019A877B
:10165000898789859A859E878D878D859E85019747
:10166000F1F79E878D878BE290E02BE230E0F90165
:1016700020812F77FC012083109208012091000126
:101680003091010183E290E0B9010E94D413CB01B3
:101690002091040130910501B9010E94D413CB01BE
:1016A0009C018091B0019091B1018217930774F170
:1016B000809106018823B1F088E890E028E830E0C6
:1016C000F9012081318126503F4FFC013183208375
:1016D0008091AE019091AF0101969093AF018093FC
:1016E000AE0110C080910601882361F488E890E083
:1016F00028E830E0F901208131812A5F3109FC01BD
:10170000318320831092B1011092B0018091B00119
:101710009091B10101969093B1018093B0018AE854
:1017200090E04091B2015091B30168EC649F900148
:10173000659F300D11242053384FFC0131832083E5
:1017400064960FB6F894DEBF0FBECDBFDF91CF9188
:101750000895CF93DF93CDB7DEB72091A8013091E4
:10176000A90144E1429FC001439F900D1124909331
:10177000AB018093AA011092A9011092A801DF91F8
:10178000CF910895CF92DF92EF92FF92CF93DF93A4
:10179000CDB7DEB7A0970FB6F894DEBF0FBECDBFB2
:1017A00080919C0190919D01092E000CAA0BBB0B0E
:1017B000BC01CD010E94A612DC01CB0189839A8372
:1017C000AB83BC8320E030E048EC52E469817A814D
:1017D0008B819C810E945B13DC01CB0120E030E80F
:1017E0004CE454E4BC01CD010E94FC11DC01CB01AE
:1017F000BC01CD010E946E12DC01CB019093A701C8
:101800008093A6018CE790E02CE730E0F90130816D
:1018100021E02327FC01208380E090E0A0E0B0E4F9
:101820008D839E83AF83B88720E030E04AE755E49C
:101830006D817E818F8198850E945B13DC01CB01D5
:1018400089879A87AB87BC8720E030E040E85FE378
:1018500069857A858B859C850E94F71188232CF4F5
:1018600081E090E09E878D873FC020E03FEF4FE70B
:1018700057E469857A858B859C850E9456131816D6
:101880004CF520E030E040E251E46D817E818F81B3
:1018900098850E945B13DC01CB01BC01CD010E9445
:1018A0007512DC01CB019E878D870FC080E991E026
:1018B000988B8F878F8598890197F1F7988B8F8701
:1018C0008D859E8501979E878D878D859E85892B29
:1018D00069F714C069857A858B859C850E9475128D
:1018E000DC01CB019E878D878D859E859A8B898BA8
:1018F00089899A890197F1F79A8B898B80919C014C
:1019000090919D01092E000CAA0BBB0BBC01CD01CF
:101910000E94A612DC01CB0189839A83AB83BC832E
:1019200020E030E04DE453E469817A818B819C8131
:101930000E948B11DC01CB0120E030E040E751E454
:10194000BC01CD010E945B13DC01CB0120E030E83B
:1019500049E953E4BC01CD010E94FC11DC01CB013B
:1019600080939E0190939F01A093A001B093A10149
:101970008CE790E02CE730E0F901308121E023276B
:10198000FC01208380E090E0A0E0B0E48B8B9C8B96
:10199000AD8BBE8B20E030E04AE755E46B897C8953
:1019A0008D899E890E945B13DC01CB018F8B988F00
:1019B000A98FBA8F20E030E040E85FE36F89788D2F
:1019C000898D9A8D0E94F71188232CF481E090E094
:1019D0009C8F8B8F3FC020E03FEF4FE757E46F892C
:1019E000788D898D9A8D0E94561318164CF520E03B
:1019F00030E040E251E46B897C898D899E890E94A8
:101A00005B13DC01CB01BC01CD010E947512DC012E
:101A1000CB019C8F8B8F0FC080E991E09E8F8D8FC3
:101A20008D8D9E8D0197F1F79E8F8D8F8B8D9C8D67
:101A300001979C8F8B8F8B8D9C8D892B69F714C0A0
:101A40006F89788D898D9A8D0E947512DC01CB018A
:101A50009C8F8B8F8B8D9C8D98A38F8F8F8D98A152
:101A60000197F1F798A38F8F80919E0190919F012C
:101A7000A091A001B091A101BC01CD010E946E1204
:101A8000DC01CB019093A3018093A201C0909E0141
:101A9000D0909F01E090A001F090A1018091A2015F
:101AA0009091A301092E000CAA0BBB0BBC01CD0128
:101AB0000E94A612DC01CB019C01AD01C701B60159
:101AC0000E948A11DC01CB0120E030E040E251E4C9
:101AD000BC01CD010E945B13DC01CB01BC01CD0137
:101AE0000E946E12DC01CB019093A5018093A401AA
:101AF000A0960FB6F894DEBF0FBECDBFDF91CF9199
:101B0000FF90EF90DF90CF900895CF93DF93CDB704
:101B1000DEB729970FB6F894DEBF0FBECDBF86E0C3
:101B2000EBE8F1E0DE01139601900D928A95E1F762
:101B300019861A82198214C09E012D5F3F4F898138
:101B40009A81820F931FFC01208189819A818C5E8A
:101B50009E4FFC01208389819A8101969A83898313
:101B600089819A81079744F329960FB6F894DEBFCE
:101B70000FBECDBFDF91CF910895CF93DF9300D0FB
:101B8000CDB7DEB71A82198212C089819A81019677
:101B9000855F9E4FFC01208189819A818C5E9E4FDA
:101BA000FC01208389819A8101969A8389838981A6
:101BB0009A81079754F310921B018091180180338A
:101BC00051F4809119018093180180911A0180933A
:101BD000190110921A010F900F90DF91CF91089583
:101BE0001F93CF93DF9300D0CDB7DEB789836A838D
:101BF00088E290E028E230E0F90120812F7BFC01AF
:101C000020838A81882351F088E290E028E230E046
:101C1000F90120812860FC01208309C088E290E05E
:101C200028E230E0F9012081277FFC01208310E0C9
:101C30003CC08981882F90E0212F30E047E050E0C0
:101C4000BA01621B730B9B0102C0959587952A957B
:101C5000E2F781709927892B51F088E290E028E221
:101C600030E0F90120812061FC01208309C088E275
:101C700090E028E230E0F90120812F7EFC012083F2
:101C800088E290E028E230E0F90120812062FC0146
:101C9000208388E290E028E230E0F90120812F7D66
:101CA000FC012083812F11E0180F183010F288E218
:101CB00090E028E230E0F90120812064FC012083DB
:101CC0000F900F90DF91CF911F910895CF93DF93E5
:101CD0001F92CDB7DEB7898360E089810E94F00D45
:101CE0000F90DF91CF910895CF93DF931F92CDB7DF
:101CF000DEB7898361E089810E94F00D0F90DF914A
:101D0000CF9108950F931F93CF93DF93CDB7DEB795
:101D10006C970FB6F894DEBF0FBECDBF87E290E0A0
:101D200027E230E0F90120812064FC01208387E272
:101D300090E027E230E0F90120812460FC0120835B
:101D400087E290E027E230E0F90120812860FC0181
:101D5000208387E290E027E230E0F90120812061D2
:101D6000FC01208387E290E027E230E0F901208146
:101D70002062FC01208388E290E028E230E0F90153
:101D800020812460FC01208388E290E028E230E09A
:101D9000F90120812064FC01208380E090E0A0E232
:101DA000B1E489839A83AB83BC8320E030E04AE7C7
:101DB00053E469817A818B819C810E945B13DC01F1
:101DC000CB018D839E83AF83B88720E030E040E86D
:101DD0005FE36D817E818F8198850E94F711882352
:101DE0002CF481E090E09A8789873FC020E03FEFA4
:101DF0004FE757E46D817E818F8198850E9456134D
:101E000018164CF520E030E040E251E469817A8117
:101E10008B819C810E945B13DC01CB01BC01CD0155
:101E20000E947512DC01CB019A8789870FC089E176
:101E300090E09C878B878B859C850197F1F79C8729
:101E40008B8789859A8501979A87898789859A855D
:101E5000892B69F714C06D817E818F8198850E94DE
:101E60007512DC01CB019A87898789859A859E87BF
:101E70008D878D859E850197F1F79E878D8788E2F6
:101E800090E028E230E0F90120812B7FFC012083E3
:101E900080E090E0ACE8B2E48F87988BA98BBA8B96
:101EA00020E030E04AE753E46F85788989899A8990
:101EB0000E945B13DC01CB018B8B9C8BAD8BBE8BAB
:101EC00020E030E040E85FE36B897C898D899E8962
:101ED0000E94F71188232CF481E090E0988F8F8B7B
:101EE0003FC020E03FEF4FE757E46B897C898D8945
:101EF0009E890E94561318164CF520E030E040E20F
:101F000051E46F85788989899A890E945B13DC0185
:101F1000CB01BC01CD010E947512DC01CB01988F71
:101F20008F8B0FC089E190E09A8F898F898D9A8D70
:101F30000197F1F79A8F898F8F89988D0197988FE4
:101F40008F8B8F89988D892B69F714C06B897C8959
:101F50008D899E890E947512DC01CB01988F8F8B31
:101F60008F89988D9C8F8B8F8B8D9C8D0197F1F72E
:101F70009C8F8B8F88E290E028E230E0F90120818D
:101F80002460FC01208388E290E028E230E0F9013F
:101F900020812F7BFC01208381E20E94660E83E179
:101FA0000E94660E86E00E94660E82EC0E94660E1B
:101FB00080E20E94660E89E00E94660E80E80E9420
:101FC000660E80E40E94660E00E010E005C080E02E
:101FD0000E94740E0F5F1F4F083FF1E01F07B8F318
:101FE00088E00E94660E8CE00E94660E6C960FB62A
:101FF000F894DEBF0FBECDBFDF91CF911F910F913F
:1020000008950F931F93CF93DF93CDB7DEB780E88A
:102010000E94660E80E40E94660E1092AD0310923C
:10202000AE0300E010E007C0C8018B549E4FFC01D6
:1020300010820F5F1F4F083FF1E01F07A8F3DF91E9
:10204000CF911F910F910895CF93DF9300D000D0CF
:102050001F92CDB7DEB78B836C834D838C818695C1
:1020600086958695882F90E044E5489F9001499F8A
:10207000300D11248B81882F90E0820F931F8B5499
:102080009E4F9A8389838D818823C9F089819A81A3
:10209000FC018081482F8C81882F90E09C01277063
:1020A000332781E090E002C0880F991F2A95E2F75C
:1020B000842B282F89819A81FC01208319C0898172
:1020C0009A81FC018081482F8C81882F90E09C01AF
:1020D0002770332781E090E002C0880F991F2A956E
:1020E000E2F780958423282F89819A81FC0120833F
:1020F0000F900F900F900F900F90DF91CF91089558
:102100000F931F93CF93DF93CDB7DEB727970FB60B
:10211000F894DEBF0FBECDBF8C836D8310E065C029
:1021200000E04EC08C81882F90E09C012052310944
:102130009D81812F692F0E94C813482F50E0C9014B
:10214000880F991F880F991F820F931F840F951F67
:1021500088599F4F9A83898389819A81FC01849150
:102160008B838B81282F30E09D81802F692F0E94E7
:10217000C813882F90E0A90102C0559547958A950C
:10218000E2F7CA0181709927892B61F08091AE0333
:10219000982F900F8091AD03810F41E0692F0E942D
:1021A00024100BC08091AE03982F900F8091AD0347
:1021B000810F40E0692F0E942410802F01E0080F5A
:1021C000402F50E08D81282F30E0C901880F991FE2
:1021D000880F991F880F991F821B930B4817590767
:1021E0000CF4A0CF812F11E0180F412F50E08D810A
:1021F000282F30E0C901880F991F880F991F820F7F
:10220000931F481759070CF48BCF2091AD039D8184
:10221000892F880F880F890F820F8F5F8093AD03FE
:102220008091AD03843570F01092AD032091AE0320
:102230009D81892F880F880F880F891B820F8F5FE0
:102240008093AE038091AE03803320F01092AD03F3
:102250001092AE0327960FB6F894DEBF0FBECDBF27
:10226000DF91CF911F910F910895CF93DF9300D00D
:102270001F92CDB7DEB79A8389836B830CC08981A7
:102280009A819C012F5F3F4F3A832983FC01808113
:102290006B810E94801089819A81FC018081882352
:1022A00071F70F900F900F90DF91CF910895CF931A
:1022B000DF9300D0CDB7DEB789836A8389818093AD
:1022C000AD038A818093AE030F900F90DF91CF9181
:1022D00008950F931F93CF93DF93CDB7DEB780E8B8
:1022E0000E94660E80E40E94660E00E010E009C0C5
:1022F000C8018B549E4FFC0180810E94740E0F5FB9
:102300001F4F083FF1E01F0798F3DF91CF911F9116
:102310000F9108955058BB27AA270E94A2110C9430
:102320001C130E940E1338F00E94151320F039F48C
:102330009F3F19F426F40C940B130EF4E095E7FB81
:102340000C940513E92F0E942D1358F3BA17620756
:1023500073078407950720F079F4A6F50C944F13C2
:102360000EF4E0950B2EBA2FA02D0B01B9019001B0
:102370000C01CA01A0011124FF27591B99F0593FF4
:1023800050F4503E68F11A16F040A22F232F342F3C
:102390004427585FF3CF469537952795A795F0408A
:1023A0005395C9F77EF41F16BA0B620B730B840B9F
:1023B000BAF09150A1F0FF0FBB1F661F771F881F57
:1023C000C2F70EC0BA0F621F731F841F48F48795AF
:1023D00077956795B795F7959E3F08F0B0CF9395A1
:1023E000880F08F09927EE0F9795879508950E941A
:1023F000E11208F481E008950E9410120C941C135D
:102400000E94151358F00E940E1340F029F45F3F0C
:1024100029F00C94051351110C9450130C940B13C8
:102420000E942D1368F39923B1F3552391F3951B63
:10243000550BBB27AA2762177307840738F09F5FE5
:102440005F4F220F331F441FAA1FA9F335D00E2E52
:102450003AF0E0E832D091505040E695001CCAF7BF
:102460002BD0FE2F29D0660F771F881FBB1F261782
:1024700037074807AB07B0E809F0BB0B802DBF0159
:10248000FF2793585F4F3AF09E3F510578F00C9428
:1024900005130C9450135F3FE4F3983ED4F38695F4
:1024A00077956795B795F7959F5FC9F7880F911D49
:1024B0009695879597F90895E1E0660F771F881F35
:1024C000BB1F621773078407BA0720F0621B730BE8
:1024D000840BBA0BEE1F88F7E09508950E947512E1
:1024E0006894B1110C94501308950E94351388F02C
:1024F0009F5798F0B92F9927B751B0F0E1F0660FC8
:10250000771F881F991F1AF0BA95C9F714C0B13008
:1025100091F00E944F13B1E008950C944F13672F70
:10252000782F8827B85F39F0B93FCCF38695779537
:102530006795B395D9F73EF4909580957095619520
:102540007F4F8F4F9F4F0895E89409C097FB3EF44B
:1025500090958095709561957F4F8F4F9F4F9923F0
:10256000A9F0F92F96E9BB279395F695879577956E
:102570006795B795F111F8CFFAF4BB0F11F460FF2E
:102580001BC06F5F7F4F8F4F9F4F16C0882311F086
:1025900096E911C0772321F09EE8872F762F05C09A
:1025A000662371F096E8862F70E060E02AF09A9535
:1025B000660F771F881FDAF7880F9695879597F92A
:1025C0000895990F0008550FAA0BE0E8FEEF1616C4
:1025D0001706E807F907C0F012161306E407F50717
:1025E00098F0621B730B840B950B39F40A2661F08B
:1025F000232B242B252B21F408950A2609F4A1402E
:10260000A6958FEF811D811D089597F99F6780E83A
:1026100070E060E008959FEF80EC089500240A9434
:102620001616170618060906089500240A941216AD
:102630001306140605060895092E0394000C11F4E0
:10264000882352F0BB0F40F4BF2B11F460FF04C08D
:102650006F5F7F4F8F4F9F4F089557FD9058440FE6
:10266000551F59F05F3F71F04795880F97FB991FF1
:1026700061F09F3F79F087950895121613061406AE
:10268000551FF2CF4695F1DF08C01616170618063B
:10269000991FF1CF86957105610508940895E89416
:1026A000BB2766277727CB0197F908950E94E1128F
:1026B00008F48FEF08950E946E130C941C130E946F
:1026C0000E1338F00E94151320F0952311F00C948E
:1026D00005130C940B1311240C9450130E942D130A
:1026E00070F3959FC1F3950F50E0551F629FF00165
:1026F000729FBB27F00DB11D639FAA27F00DB11D7E
:10270000AA1F649F6627B00DA11D661F829F222706
:10271000B00DA11D621F739FB00DA11D621F839F8D
:10272000A00D611D221F749F3327A00D611D231F63
:10273000849F600D211D822F762F6A2F11249F57B1
:1027400050409AF0F1F088234AF0EE0FFF1FBB1FB4
:10275000661F771F881F91505040A9F79E3F510573
:1027600080F00C9405130C9450135F3FE4F3983EF3
:10277000D4F3869577956795B795F795E7959F5F1D
:10278000C1F7FE2B880F911D9695879597F90895AF
:10279000991B79E004C0991F961708F0961B881FB3
:1027A0007A95C9F78095089597FB072E16F4009443
:1027B00007D077FD09D00E94E81307FC05D03EF44E
:1027C000909581959F4F0895709561957F4F0895DD
:1027D000AA1BBB1B51E107C0AA1FBB1FA617B70747
:1027E00010F0A61BB70B881F991F5A95A9F7809563
:1027F0009095BC01CD010895AEE0B0E0E2E0F4E1D7
:102800000C94AB160D891E8986E08C831A8309838C
:102810008FEF9FE79E838D83AE01475E5F4F6F8989
:10282000788DCE0101960E941F142F813885F80102
:10283000E20FF31F10822E96E4E00C94C716ACE072
:10284000B0E0E5E2F4E10C949D167C016B018A0195
:10285000FC0117821682838181FFBDC1CE010196E2
:102860004C01F7019381F60193FD859193FF8191CE
:102870006F01882309F4ABC1853239F493FD85914A
:1028800093FF81916F01853229F4B70190E00E9496
:102890000716E7CF512C312C20E02032A0F48B32E8
:1028A00069F030F4803259F0833269F420612CC031
:1028B0008D3239F0803339F4216026C022602460E3
:1028C00023C0286021C027FD27C030ED380F3A30E3
:1028D00078F426FF06C0FAE05F9E300D1124532ED7
:1028E00013C08AE0389E300D1124332E20620CC0B4
:1028F0008E3221F426FD6BC1206406C08C3611F4A3
:10290000206802C0883641F4F60193FD859193FF5B
:1029100081916F018111C1CF982F9F7D9554933084
:1029200028F40C5F1F4FFFE3F9830DC0833631F0AD
:10293000833771F0833509F05BC022C0F8018081D4
:1029400089830E5F1F4F44244394512C540115C0BA
:102950003801F2E06F0E711CF801A080B18026FFF3
:1029600003C0652D70E002C06FEF7FEFC5012C87BB
:102970000E94FC152C0183012C852F77222E17C075
:102980003801F2E06F0E711CF801A080B18026FFC3
:1029900003C0652D70E002C06FEF7FEFC5012C878B
:1029A0000E94F1152C012C852068222E830123FC26
:1029B0001BC0832D90E048165906B0F4B70180E2A1
:1029C00090E00E9407163A94F4CFF50127FC859118
:1029D00027FE81915F01B70190E00E940716311038
:1029E0003A94F1E04F1A51084114510471F7E5C0CF
:1029F000843611F0893639F5F80127FF07C0608168
:102A00007181828193810C5F1F4F08C06081718149
:102A1000072E000C880B990B0E5F1F4F2F76722E1E
:102A200097FF09C090958095709561957F4F8F4F66
:102A30009F4F2068722E2AE030E0A4010E943F16CA
:102A4000A82EA81844C0853729F42F7EB22E2AE07C
:102A500030E025C0F22FF97FBF2E8F36C1F018F479
:102A6000883579F0B4C0803719F0883721F0AFC0CD
:102A70002F2F2061B22EB4FE0DC08B2D8460B82E96
:102A800009C024FF0AC09F2F9660B92E06C028E017
:102A900030E005C020E130E002C020E132E0F80182
:102AA000B7FE07C060817181828193810C5F1F4FE7
:102AB00006C06081718180E090E00E5F1F4FA4012D
:102AC0000E943F16A82EA818FB2DFF777F2E76FEBA
:102AD0000BC0372D3E7FA51450F474FE0AC072FC63
:102AE00008C0372D3E7E05C0BA2C372D03C0BA2C46
:102AF00001C0B52C34FF0DC0FE01EA0DF11D80812F
:102B0000803311F4397E09C032FF06C0B394B39408
:102B100004C0832F867809F0B39433FD13C030FFCF
:102B200006C05A2CB31418F4530C5B18B32CB3140E
:102B300068F4B70180E290E03C870E940716B394E6
:102B40003C85F5CFB31410F43B1801C0312C34FF91
:102B500012C0B70180E390E03C870E9407163C85D5
:102B600032FF17C031FD03C088E790E002C088E55E
:102B700090E0B7010CC0832F867859F031FF02C076
:102B80008BE201C080E237FD8DE2B70190E00E9448
:102B90000716A51438F4B70180E390E00E940716E9
:102BA0005A94F7CFAA94F401EA0DF11D8081B70180
:102BB00090E00E940716A110F5CF332009F451CE02
:102BC000B70180E290E00E9407163A94F6CFF70131
:102BD0008681978102C08FEF9FEF2C96E2E10C94E3
:102BE000B916FC010590615070400110D8F780952E
:102BF00090958E0F9F1F0895FC01615070400190C9
:102C00000110D8F7809590958E0F9F1F08950F9310
:102C10001F93CF93DF93FB01238121FD03C08FEF2F
:102C20009FEF28C022FF16C046815781248135813D
:102C30004217530744F4A081B1819D012F5F3F4F9C
:102C4000318320838C93268137812F5F3F4F3783D9
:102C5000268310C0EB01092F182F0084F185E02D89
:102C60000995892BE1F68E819F8101969F838E8342
:102C7000812F902FDF91CF911F910F910895FA012D
:102C8000AA27283051F1203181F1E8946F936E7FAB
:102C90006E5F7F4F8F4F9F4FAF4FB1E03ED0B4E09C
:102CA0003CD0670F781F891F9A1FA11D680F791FDD
:102CB0008A1F911DA11D6A0F711D811D911DA11DEE
:102CC00020D009F468943F912AE0269F11243019FE
:102CD000305D3193DEF6CF010895462F4770405D99
:102CE0004193B3E00FD0C9F7F6CF462F4F70405D48
:102CF0004A3318F0495D31FD4052419302D0A9F7A3
:102D0000EACFB4E0A6959795879577956795BA959C
:102D1000C9F700976105710508959B01AC010A2E62
:102D200006945795479537952795BA95C9F7620F39
:102D3000731F841F951FA01D08952F923F924F92DD
:102D40005F926F927F928F929F92AF92BF92CF923B
:102D5000DF92EF92FF920F931F93CF93DF93CDB744
:102D6000DEB7CA1BDB0B0FB6F894DEBF0FBECDBFBC
:102D700009942A88398848885F846E847D848C848D
:102D80009B84AA84B984C884DF80EE80FD800C8196
:102D90001B81AA81B981CE0FD11D0FB6F894DEBF79
:0C2DA0000FBECDBFED010895F894FFCFE9
:102DAC000500FFFF010001010101013B4848487883
:102DBC004C4C4C3A484848784C4C4C0025640052DA
:102DCC00455350495241444F52007265734D6563EF
:102DDC000053696E616973205669746169730042AE
:102DEC00504D002553703032002E0043006D6D485D
:102DFC006700506172616D6574726F73002A0052C6
:102E0C006573702F4D696E00254F3200766F6C0024
:102E1C00436F6E6669677300536F756E640045711E
:102E2C0020415558004C45442773004552524F21C0
:022E3C00000094
:00000001FF
